{
  "contractName": "Tender",
  "abi": [
    {
      "inputs": [
        {
          "internalType": "uint256",
          "name": "_dateEnd",
          "type": "uint256"
        }
      ],
      "payable": false,
      "stateMutability": "nonpayable",
      "type": "constructor"
    },
    {
      "anonymous": false,
      "inputs": [
        {
          "indexed": true,
          "internalType": "address",
          "name": "_bidder",
          "type": "address"
        },
        {
          "indexed": false,
          "internalType": "string",
          "name": "_offerHash",
          "type": "string"
        }
      ],
      "name": "OfferSubmitted",
      "type": "event"
    },
    {
      "constant": true,
      "inputs": [
        {
          "internalType": "address",
          "name": "",
          "type": "address"
        }
      ],
      "name": "bidderToIndex",
      "outputs": [
        {
          "internalType": "uint256",
          "name": "",
          "type": "uint256"
        }
      ],
      "payable": false,
      "stateMutability": "view",
      "type": "function"
    },
    {
      "constant": true,
      "inputs": [],
      "name": "dateEnd",
      "outputs": [
        {
          "internalType": "uint256",
          "name": "",
          "type": "uint256"
        }
      ],
      "payable": false,
      "stateMutability": "view",
      "type": "function"
    },
    {
      "constant": true,
      "inputs": [],
      "name": "offersCount",
      "outputs": [
        {
          "internalType": "uint256",
          "name": "",
          "type": "uint256"
        }
      ],
      "payable": false,
      "stateMutability": "view",
      "type": "function"
    },
    {
      "constant": true,
      "inputs": [
        {
          "internalType": "uint256",
          "name": "",
          "type": "uint256"
        }
      ],
      "name": "submittedOffers",
      "outputs": [
        {
          "internalType": "address",
          "name": "bidder",
          "type": "address"
        },
        {
          "internalType": "string",
          "name": "offerHash",
          "type": "string"
        },
        {
          "internalType": "uint256",
          "name": "timestamp",
          "type": "uint256"
        }
      ],
      "payable": false,
      "stateMutability": "view",
      "type": "function"
    },
    {
      "constant": false,
      "inputs": [
        {
          "internalType": "string",
          "name": "offerHash",
          "type": "string"
        }
      ],
      "name": "submitOffer",
      "outputs": [],
      "payable": false,
      "stateMutability": "nonpayable",
      "type": "function"
    }
  ],
  "bytecode": "0x608060405234801561001057600080fd5b5060405161069f38038061069f8339818101604052602081101561003357600080fd5b810190808051906020019092919050505080600381905550600080819055505061063d806100626000396000f3fe608060405234801561001057600080fd5b50600436106100575760003560e01c806353a9bb231461005c57806361e23f4e1461013d57806389244e2a14610195578063bec02acc146101b3578063e13b2559146101d1575b600080fd5b6100886004803603602081101561007257600080fd5b810190808035906020019092919050505061028c565b604051808473ffffffffffffffffffffffffffffffffffffffff1673ffffffffffffffffffffffffffffffffffffffff16815260200180602001838152602001828103825284818151815260200191508051906020019080838360005b838110156101005780820151818401526020810190506100e5565b50505050905090810190601f16801561012d5780820380516001836020036101000a031916815260200191505b5094505050505060405180910390f35b61017f6004803603602081101561015357600080fd5b81019080803573ffffffffffffffffffffffffffffffffffffffff16906020019092919050505061036e565b6040518082815260200191505060405180910390f35b61019d610386565b6040518082815260200191505060405180910390f35b6101bb61038c565b6040518082815260200191505060405180910390f35b61028a600480360360208110156101e757600080fd5b810190808035906020019064010000000081111561020457600080fd5b82018360208201111561021657600080fd5b8035906020019184600183028401116401000000008311171561023857600080fd5b91908080601f016020809104026020016040519081016040528093929190818152602001838380828437600081840152601f19601f820116905080830192505050505050509192919290505050610392565b005b60026020528060005260406000206000915090508060000160009054906101000a900473ffffffffffffffffffffffffffffffffffffffff1690806001018054600181600116156101000203166002900480601f01602080910402602001604051908101604052809291908181526020018280546001816001161561010002031660029004801561035e5780601f106103335761010080835404028352916020019161035e565b820191906000526020600020905b81548152906001019060200180831161034157829003601f168201915b5050505050908060020154905083565b60016020528060005260406000206000915090505481565b60035481565b60005481565b60035442106103a057600080fd5b6000808154809291906001019190505550600054600160003373ffffffffffffffffffffffffffffffffffffffff1673ffffffffffffffffffffffffffffffffffffffff1681526020019081526020016000208190555060405180606001604052803373ffffffffffffffffffffffffffffffffffffffff16815260200182815260200142815250600260008054815260200190815260200160002060008201518160000160006101000a81548173ffffffffffffffffffffffffffffffffffffffff021916908373ffffffffffffffffffffffffffffffffffffffff160217905550602082015181600101908051906020019061049f929190610563565b50604082015181600201559050503373ffffffffffffffffffffffffffffffffffffffff167fd5237aa8873cfbcab5e511a139f143dd33e1d505037291e805542bcb3175b95f826040518080602001828103825283818151815260200191508051906020019080838360005b8381101561052657808201518184015260208101905061050b565b50505050905090810190601f1680156105535780820380516001836020036101000a031916815260200191505b509250505060405180910390a250565b828054600181600116156101000203166002900490600052602060002090601f016020900481019282601f106105a457805160ff19168380011785556105d2565b828001600101855582156105d2579182015b828111156105d15782518255916020019190600101906105b6565b5b5090506105df91906105e3565b5090565b61060591905b808211156106015760008160009055506001016105e9565b5090565b9056fea265627a7a723158207e373a4b22602cd38619e5c573741f6b51d116c912484952951952f4ffa5c80f64736f6c63430005100032",
  "source": "pragma solidity >=0.4.25 <0.6.0;\n\ncontract Tender {\n    struct Offer {\n        address bidder;\n        string offerHash;\n        uint256 timestamp;\n    }\n\n    uint public offersCount;\n    mapping (address => uint) public bidderToIndex; // to check who already submitted offers\n    mapping (uint => Offer) public submittedOffers; // a sequence of submitted offers\n    uint256 public dateEnd;\n\n    event OfferSubmitted(address indexed _bidder, string _offerHash);\n\n    constructor(uint256 _dateEnd) public {\n        dateEnd = _dateEnd;\n        offersCount = 0;\n    }\n\n    function submitOffer(string memory offerHash) public {\n        require(now < dateEnd);\n        //require(bidderToIndex[msg.sender] == 0);\n\n        offersCount++;\n        bidderToIndex[msg.sender] = offersCount;\n        submittedOffers[offersCount] = Offer(msg.sender, offerHash, now);\n        \n        emit OfferSubmitted(msg.sender, offerHash);\n    }\n}\n",
  "sourcePath": "/Users/nmaltagliatt/Documents/blockchain/blockchain_backend/contracts/Tender.sol",
  "compiler": {
    "name": "solc",
    "version": "0.5.16+commit.9c3226ce.Emscripten.clang"
  },
  "schemaVersion": "3.0.23",
  "updatedAt": "2020-07-09T13:45:59.466Z",
  "devdoc": {
    "methods": {}
  },
  "userdoc": {
    "methods": {}
  }
}